{
  "transactions": [
    {
      "hash": "0xaeae8d5914bb4e11ea556ca5230e34308b5c64474d442fb7828c5e55009bf7a0",
      "transactionType": "CALL",
      "contractName": null,
      "contractAddress": "0x57759a2094cbe24313b826b453d4e7760279f79d",
      "function": "setModuleVerified(address,bool,string,string)",
      "arguments": [
        "0x6c5A8A7f061bEd94b1b88CFAd4e1a1a8C5c4e527",
        "true",
        "MetadataModule",
        "1.0.0"
      ],
      "transaction": {
        "from": "0x193d99ae5d3b5c8bb595b1f88dd1cc8c379a1770",
        "to": "0x57759a2094cbe24313b826b453d4e7760279f79d",
        "gas": "0x13105",
        "value": "0x0",
        "input": "0xa56a62f70000000000000000000000006c5a8a7f061bed94b1b88cfad4e1a1a8c5c4e5270000000000000000000000000000000000000000000000000000000000000001000000000000000000000000000000000000000000000000000000000000008000000000000000000000000000000000000000000000000000000000000000c0000000000000000000000000000000000000000000000000000000000000000e4d657461646174614d6f64756c650000000000000000000000000000000000000000000000000000000000000000000000000000000000000000000000000005312e302e30000000000000000000000000000000000000000000000000000000",
        "nonce": "0x51",
        "chainId": "0x14a34"
      },
      "additionalContracts": [],
      "isFixedGasLimit": false
    }
  ],
  "receipts": [
    {
      "status": "0x1",
      "cumulativeGasUsed": "0x30145",
      "logs": [
        {
          "address": "0x57759a2094cbe24313b826b453d4e7760279f79d",
          "topics": [
            "0x4fce400aa0302f3eafb78e1848a45d0ad0a7edcbf57ba6d3070c6604249921be",
            "0x0000000000000000000000006c5a8a7f061bed94b1b88cfad4e1a1a8c5c4e527"
          ],
          "data": "0x0000000000000000000000000000000000000000000000000000000000000001000000000000000000000000000000000000000000000000000000000000006000000000000000000000000000000000000000000000000000000000000000a0000000000000000000000000000000000000000000000000000000000000000e4d657461646174614d6f64756c650000000000000000000000000000000000000000000000000000000000000000000000000000000000000000000000000005312e302e30000000000000000000000000000000000000000000000000000000",
          "blockHash": "0x0000000000000000000000000000000000000000000000000000000000000000",
          "blockNumber": "0x24a0826",
          "blockTimestamp": "0x69a76f2c",
          "transactionHash": "0xaeae8d5914bb4e11ea556ca5230e34308b5c64474d442fb7828c5e55009bf7a0",
          "transactionIndex": "0x4",
          "logIndex": "0x2",
          "removed": false
        }
      ],
      "logsBloom": "0x00000000000000000000100000000000000000000000000000000000000000000000000000000000000000000000000000001000000000000000000000000010000000000000000000000000000000000000400000000000000000000000000000000000000000000000000000000000000000000000000000000000000000000000000000000000000000004000000000000008000000000000000000000000000000000000000000000000000000000000000000000002000000000000000000000000000040000000000000000000000000000000000000000000000000000000000000000000000000000000000000000000000000000000000000000008",
      "type": "0x2",
      "transactionHash": "0xaeae8d5914bb4e11ea556ca5230e34308b5c64474d442fb7828c5e55009bf7a0",
      "transactionIndex": "0x4",
      "blockHash": "0x0000000000000000000000000000000000000000000000000000000000000000",
      "blockNumber": "0x24a0826",
      "gasUsed": "0xdcd5",
      "effectiveGasPrice": "0x5b8d80",
      "blobGasUsed": "0x4837",
      "from": "0x193d99ae5d3b5c8bb595b1f88dd1cc8c379a1770",
      "to": "0x57759a2094cbe24313b826b453d4e7760279f79d",
      "contractAddress": null,
      "daFootprintGasScalar": "0x8b",
      "l1BaseFeeScalar": "0x44d",
      "l1BlobBaseFee": "0x1",
      "l1BlobBaseFeeScalar": "0xa118b",
      "l1Fee": "0x53",
      "l1GasPrice": "0xa",
      "l1GasUsed": "0x851"
    }
  ],
  "libraries": [],
  "pending": [],
  "returns": {},
  "timestamp": 1772580650389,
  "chain": 84532,
  "commit": "34f2221"
}