{
  "transactions": [
    {
      "hash": "0x70a364d3ed292cefe9e6fbd3cd34e70d828658307fd069236625d76713dc7d3b",
      "transactionType": "CREATE",
      "contractName": "TestERC20",
      "contractAddress": "0x6086d5ee62d868764e28a8a6ea32b6f63b02c5b8",
      "function": null,
      "arguments": [
        "kUSD",
        "kUSD"
      ],
      "transaction": {
        "from": "0x193d99ae5d3b5c8bb595b1f88dd1cc8c379a1770",
        "gas": "0xc170f",
        "value": "0x0",
        "input": "0x608060405234801561000f575f5ffd5b50604051610ba5380380610ba583398101604081905261002e916100f0565b8181600361003c83826101d9565b50600461004982826101d9565b5050505050610293565b634e487b7160e01b5f52604160045260245ffd5b5f82601f830112610076575f5ffd5b81516001600160401b0381111561008f5761008f610053565b604051601f8201601f19908116603f011681016001600160401b03811182821017156100bd576100bd610053565b6040528181528382016020018510156100d4575f5ffd5b8160208501602083015e5f918101602001919091529392505050565b5f5f60408385031215610101575f5ffd5b82516001600160401b03811115610116575f5ffd5b61012285828601610067565b602085015190935090506001600160401b0381111561013f575f5ffd5b61014b85828601610067565b9150509250929050565b600181811c9082168061016957607f821691505b60208210810361018757634e487b7160e01b5f52602260045260245ffd5b50919050565b601f8211156101d457805f5260205f20601f840160051c810160208510156101b25750805b601f840160051c820191505b818110156101d1575f81556001016101be565b50505b505050565b81516001600160401b038111156101f2576101f2610053565b610206816102008454610155565b8461018d565b6020601f821160018114610238575f83156102215750848201515b5f19600385901b1c1916600184901b1784556101d1565b5f84815260208120601f198516915b828110156102675787850151825560209485019460019092019101610247565b508482101561028457868401515f19600387901b60f8161c191681555b50505050600190811b01905550565b610905806102a05f395ff3fe608060405234801561000f575f5ffd5b50600436106100b1575f3560e01c806340c10f191161006e57806340c10f191461013d57806370a082311461015257806395d89b411461017a578063a457c2d714610182578063a9059cbb14610195578063dd62ed3e146101a8575f5ffd5b806306fdde03146100b5578063095ea7b3146100d357806318160ddd146100f657806323b872dd14610108578063313ce5671461011b578063395093511461012a575b5f5ffd5b6100bd6101bb565b6040516100ca9190610775565b60405180910390f35b6100e66100e13660046107c5565b61024b565b60405190151581526020016100ca565b6002545b6040519081526020016100ca565b6100e66101163660046107ed565b610264565b604051601281526020016100ca565b6100e66101383660046107c5565b610287565b61015061014b3660046107c5565b6102a8565b005b6100fa610160366004610827565b6001600160a01b03165f9081526020819052604090205490565b6100bd6102b6565b6100e66101903660046107c5565b6102c5565b6100e66101a33660046107c5565b610344565b6100fa6101b6366004610847565b610351565b6060600380546101ca90610878565b80601f01602080910402602001604051908101604052809291908181526020018280546101f690610878565b80156102415780601f1061021857610100808354040283529160200191610241565b820191905f5260205f20905b81548152906001019060200180831161022457829003601f168201915b5050505050905090565b5f3361025881858561037b565b60019150505b92915050565b5f3361027185828561049e565b61027c858585610516565b506001949350505050565b5f336102588185856102998383610351565b6102a391906108b0565b61037b565b6102b282826106b8565b5050565b6060600480546101ca90610878565b5f33816102d28286610351565b9050838110156103375760405162461bcd60e51b815260206004820152602560248201527f45524332303a2064656372656173656420616c6c6f77616e63652062656c6f77604482015264207a65726f60d81b60648201526084015b60405180910390fd5b61027c828686840361037b565b5f33610258818585610516565b6001600160a01b039182165f90815260016020908152604080832093909416825291909152205490565b6001600160a01b0383166103dd5760405162461bcd60e51b8152602060048201526024808201527f45524332303a20617070726f76652066726f6d20746865207a65726f206164646044820152637265737360e01b606482015260840161032e565b6001600160a01b03821661043e5760405162461bcd60e51b815260206004820152602260248201527f45524332303a20617070726f766520746f20746865207a65726f206164647265604482015261737360f01b606482015260840161032e565b6001600160a01b038381165f8181526001602090815260408083209487168084529482529182902085905590518481527f8c5be1e5ebec7d5bd14f71427d1e84f3dd0314c0f7b2291e5b200ac8c7c3b925910160405180910390a3505050565b5f6104a98484610351565b90505f19811461051057818110156105035760405162461bcd60e51b815260206004820152601d60248201527f45524332303a20696e73756666696369656e7420616c6c6f77616e6365000000604482015260640161032e565b610510848484840361037b565b50505050565b6001600160a01b03831661057a5760405162461bcd60e51b815260206004820152602560248201527f45524332303a207472616e736665722066726f6d20746865207a65726f206164604482015264647265737360d81b606482015260840161032e565b6001600160a01b0382166105dc5760405162461bcd60e51b815260206004820152602360248201527f45524332303a207472616e7366657220746f20746865207a65726f206164647260448201526265737360e81b606482015260840161032e565b6001600160a01b0383165f90815260208190526040902054818110156106535760405162461bcd60e51b815260206004820152602660248201527f45524332303a207472616e7366657220616d6f756e7420657863656564732062604482015265616c616e636560d01b606482015260840161032e565b6001600160a01b038481165f81815260208181526040808320878703905593871680835291849020805487019055925185815290927fddf252ad1be2c89b69c2b068fc378daa952ba7f163c4a11628f55a4df523b3ef910160405180910390a3610510565b6001600160a01b03821661070e5760405162461bcd60e51b815260206004820152601f60248201527f45524332303a206d696e7420746f20746865207a65726f206164647265737300604482015260640161032e565b8060025f82825461071f91906108b0565b90915550506001600160a01b0382165f81815260208181526040808320805486019055518481527fddf252ad1be2c89b69c2b068fc378daa952ba7f163c4a11628f55a4df523b3ef910160405180910390a35050565b602081525f82518060208401528060208501604085015e5f604082850101526040601f19601f83011684010191505092915050565b80356001600160a01b03811681146107c0575f5ffd5b919050565b5f5f604083850312156107d6575f5ffd5b6107df836107aa565b946020939093013593505050565b5f5f5f606084860312156107ff575f5ffd5b610808846107aa565b9250610816602085016107aa565b929592945050506040919091013590565b5f60208284031215610837575f5ffd5b610840826107aa565b9392505050565b5f5f60408385031215610858575f5ffd5b610861836107aa565b915061086f602084016107aa565b90509250929050565b600181811c9082168061088c57607f821691505b6020821081036108aa57634e487b7160e01b5f52602260045260245ffd5b50919050565b8082018082111561025e57634e487b7160e01b5f52601160045260245ffdfea264697066735822122008d78930ade7f82f894769972285e2a953db9641e16b75c6a9a0a47664ea70e564736f6c634300081d00330000000000000000000000000000000000000000000000000000000000000040000000000000000000000000000000000000000000000000000000000000008000000000000000000000000000000000000000000000000000000000000000046b5553440000000000000000000000000000000000000000000000000000000000000000000000000000000000000000000000000000000000000000000000046b55534400000000000000000000000000000000000000000000000000000000",
        "nonce": "0x14",
        "chainId": "0x14a34"
      },
      "additionalContracts": [],
      "isFixedGasLimit": false
    },
    {
      "hash": "0x6e71cdaa79302e1d5e964449b19e8cacd8fd95495b06851d909d3940ac7d28fc",
      "transactionType": "CALL",
      "contractName": "TestERC20",
      "contractAddress": "0x6086d5ee62d868764e28a8a6ea32b6f63b02c5b8",
      "function": "mint(address,uint256)",
      "arguments": [
        "0x193D99AE5D3b5C8BB595B1f88dd1Cc8c379A1770",
        "1000000000000000000000000"
      ],
      "transaction": {
        "from": "0x193d99ae5d3b5c8bb595b1f88dd1cc8c379a1770",
        "to": "0x6086d5ee62d868764e28a8a6ea32b6f63b02c5b8",
        "gas": "0x17035",
        "value": "0x0",
        "input": "0x40c10f19000000000000000000000000193d99ae5d3b5c8bb595b1f88dd1cc8c379a177000000000000000000000000000000000000000000000d3c21bcecceda1000000",
        "nonce": "0x15",
        "chainId": "0x14a34"
      },
      "additionalContracts": [],
      "isFixedGasLimit": false
    },
    {
      "hash": "0x01fcac885561046de4f8ae6ebf34ffd56ec3bfe8a936fd0f6ec59f63ec29c746",
      "transactionType": "CALL",
      "contractName": null,
      "contractAddress": "0x7447e94dfe3d804a9f46bf12838d467c912c8f6c",
      "function": "createERC20Wrapper(address,uint8,uint8,string,string)",
      "arguments": [
        "0x6086D5Ee62d868764e28A8a6Ea32b6F63b02C5B8",
        "18",
        "1",
        "Super kUSD",
        "kUSDx"
      ],
      "transaction": {
        "from": "0x193d99ae5d3b5c8bb595b1f88dd1cc8c379a1770",
        "to": "0x7447e94dfe3d804a9f46bf12838d467c912c8f6c",
        "gas": "0x7d827",
        "value": "0x0",
        "input": "0xa6d0c5340000000000000000000000006086d5ee62d868764e28a8a6ea32b6f63b02c5b80000000000000000000000000000000000000000000000000000000000000012000000000000000000000000000000000000000000000000000000000000000100000000000000000000000000000000000000000000000000000000000000a000000000000000000000000000000000000000000000000000000000000000e0000000000000000000000000000000000000000000000000000000000000000a5375706572206b5553440000000000000000000000000000000000000000000000000000000000000000000000000000000000000000000000000000000000056b55534478000000000000000000000000000000000000000000000000000000",
        "nonce": "0x16",
        "chainId": "0x14a34"
      },
      "additionalContracts": [
        {
          "transactionType": "CREATE",
          "contractName": "UUPSProxy",
          "address": "0xadda582c1a3e4a1067c0e745894a822bb7e8698c",
          "initCode": "0x6080604052348015600e575f5ffd5b5061021d8061001c5f395ff3fe608060405260043610610021575f3560e01c80634a0687ef1461003857610030565b366100305761002e610057565b005b61002e610057565b348015610043575f5ffd5b5061002e6100523660046101ba565b610069565b61006761006261016e565b61019c565b565b6001600160a01b0381166100c45760405162461bcd60e51b815260206004820152601760248201527f5555505350726f78793a207a65726f206164647265737300000000000000000060448201526064015b60405180910390fd5b5f6100ed7f360894a13ba1a3210667c828492db98dca3e2076cc3735a920a3ca505d382bbc5490565b6001600160a01b0316146101435760405162461bcd60e51b815260206004820152601e60248201527f5555505350726f78793a20616c726561647920696e697469616c697a6564000060448201526064016100bb565b61016b817f360894a13ba1a3210667c828492db98dca3e2076cc3735a920a3ca505d382bbc55565b50565b5f6101977f360894a13ba1a3210667c828492db98dca3e2076cc3735a920a3ca505d382bbc5490565b905090565b365f5f375f5f365f845af43d5f5f3e8080156101b6573d5ff35b3d5ffd5b5f602082840312156101ca575f5ffd5b81356001600160a01b03811681146101e0575f5ffd5b939250505056fea2646970667358221220021fee4d4afb017f91e78fc8670012c41ffd5ada9094e4651a9633cca70859de64736f6c634300081e0033"
        }
      ],
      "isFixedGasLimit": false
    },
    {
      "hash": "0xf665d6d74c50cdf2517d2a460ef5bd0ffa2d1207617f64737cb3d5da275cf74a",
      "transactionType": "CALL",
      "contractName": null,
      "contractAddress": "0x268cfab9ddddf6a326458ae79d55592516f382ef",
      "function": "allowCurrency(address,bool)",
      "arguments": [
        "0xadDA582c1a3E4a1067C0E745894A822bb7E8698C",
        "true"
      ],
      "transaction": {
        "from": "0x193d99ae5d3b5c8bb595b1f88dd1cc8c379a1770",
        "to": "0x268cfab9ddddf6a326458ae79d55592516f382ef",
        "gas": "0x155a0",
        "value": "0x0",
        "input": "0xb1d07a1f000000000000000000000000adda582c1a3e4a1067c0e745894a822bb7e8698c0000000000000000000000000000000000000000000000000000000000000001",
        "nonce": "0x17",
        "chainId": "0x14a34"
      },
      "additionalContracts": [],
      "isFixedGasLimit": false
    }
  ],
  "receipts": [
    {
      "status": "0x1",
      "cumulativeGasUsed": "0xb61850",
      "logs": [],
      "logsBloom": "0x00000000000000000000000000000000000000000000000000000000000000000000000000000000000000000000000000000000000000000000000000000000000000000000000000000000000000000000000000000000000000000000000000000000000000000000000000000000000000000000000000000000000000000000000000000000000000000000000000000000000000000000000000000000000000000000000000000000000000000000000000000000000000000000000000000000000000000000000000000000000000000000000000000000000000000000000000000000000000000000000000000000000000000000000000000000",
      "type": "0x2",
      "transactionHash": "0x70a364d3ed292cefe9e6fbd3cd34e70d828658307fd069236625d76713dc7d3b",
      "transactionIndex": "0x17",
      "blockHash": "0x0000000000000000000000000000000000000000000000000000000000000000",
      "blockNumber": "0x23cbe91",
      "gasUsed": "0x94cd1",
      "effectiveGasPrice": "0x2dc6c0",
      "blobGasUsed": "0x3d867",
      "from": "0x193d99ae5d3b5c8bb595b1f88dd1cc8c379a1770",
      "to": null,
      "contractAddress": "0x6086d5ee62d868764e28a8a6ea32b6f63b02c5b8",
      "daFootprintGasScalar": "0x8b",
      "l1BaseFeeScalar": "0x44d",
      "l1BlobBaseFee": "0xe45eb80",
      "l1BlobBaseFeeScalar": "0xa118b",
      "l1Fee": "0x55367ee8a",
      "l1GasPrice": "0xef52d651",
      "l1GasUsed": "0x7159"
    },
    {
      "status": "0x1",
      "cumulativeGasUsed": "0xb722e4",
      "logs": [
        {
          "address": "0x6086d5ee62d868764e28a8a6ea32b6f63b02c5b8",
          "topics": [
            "0xddf252ad1be2c89b69c2b068fc378daa952ba7f163c4a11628f55a4df523b3ef",
            "0x0000000000000000000000000000000000000000000000000000000000000000",
            "0x000000000000000000000000193d99ae5d3b5c8bb595b1f88dd1cc8c379a1770"
          ],
          "data": "0x00000000000000000000000000000000000000000000d3c21bcecceda1000000",
          "blockHash": "0x0000000000000000000000000000000000000000000000000000000000000000",
          "blockNumber": "0x23cbe91",
          "blockTimestamp": "0x698cdc02",
          "transactionHash": "0x6e71cdaa79302e1d5e964449b19e8cacd8fd95495b06851d909d3940ac7d28fc",
          "transactionIndex": "0x18",
          "logIndex": "0xf5",
          "removed": false
        }
      ],
      "logsBloom": "0x00020002000000000000000000000000000000000000000000000000000000000000000000000000000000000000000000000000000000000000000000000000000000000000000000000008000002000000080000000000000000000000000000000000020000000000000000000800000000000000000000000010000000000000000000000000000000000000000000000000000000000000000000000000800000000000000000000000000000000000000000000000000000000000000000000002000000000000000000000000000000000000000000000000000020000000000000000000400000000000000000000000000000000000000000000000",
      "type": "0x2",
      "transactionHash": "0x6e71cdaa79302e1d5e964449b19e8cacd8fd95495b06851d909d3940ac7d28fc",
      "transactionIndex": "0x18",
      "blockHash": "0x0000000000000000000000000000000000000000000000000000000000000000",
      "blockNumber": "0x23cbe91",
      "gasUsed": "0x10a94",
      "effectiveGasPrice": "0x2dc6c0",
      "blobGasUsed": "0x364c",
      "from": "0x193d99ae5d3b5c8bb595b1f88dd1cc8c379a1770",
      "to": "0x6086d5ee62d868764e28a8a6ea32b6f63b02c5b8",
      "contractAddress": null,
      "daFootprintGasScalar": "0x8b",
      "l1BaseFeeScalar": "0x44d",
      "l1BlobBaseFee": "0xe45eb80",
      "l1BlobBaseFeeScalar": "0xa118b",
      "l1Fee": "0x55367ee8a",
      "l1GasPrice": "0xef52d651",
      "l1GasUsed": "0x640"
    },
    {
      "status": "0x1",
      "cumulativeGasUsed": "0xbc7ffd",
      "logs": [
        {
          "address": "0x1820a4b7618bde71dce8cdc73aab6c95905fad24",
          "topics": [
            "0x93baa6efbd2244243bfee6ce4cfdd1d04fc4c0e9a786abd3a41313bd352db153",
            "0x000000000000000000000000adda582c1a3e4a1067c0e745894a822bb7e8698c",
            "0xac7fbab5f54a3ca8194167523c6753bfeb96a445279294b6125b68cce2177054",
            "0x000000000000000000000000adda582c1a3e4a1067c0e745894a822bb7e8698c"
          ],
          "data": "0x",
          "blockHash": "0x0000000000000000000000000000000000000000000000000000000000000000",
          "blockNumber": "0x23cbe91",
          "blockTimestamp": "0x698cdc02",
          "transactionHash": "0x01fcac885561046de4f8ae6ebf34ffd56ec3bfe8a936fd0f6ec59f63ec29c746",
          "transactionIndex": "0x19",
          "logIndex": "0xf6",
          "removed": false
        },
        {
          "address": "0x1820a4b7618bde71dce8cdc73aab6c95905fad24",
          "topics": [
            "0x93baa6efbd2244243bfee6ce4cfdd1d04fc4c0e9a786abd3a41313bd352db153",
            "0x000000000000000000000000adda582c1a3e4a1067c0e745894a822bb7e8698c",
            "0xaea199e31a596269b42cdafd93407f14436db6e4cad65417994c2eb37381e05a",
            "0x000000000000000000000000adda582c1a3e4a1067c0e745894a822bb7e8698c"
          ],
          "data": "0x",
          "blockHash": "0x0000000000000000000000000000000000000000000000000000000000000000",
          "blockNumber": "0x23cbe91",
          "blockTimestamp": "0x698cdc02",
          "transactionHash": "0x01fcac885561046de4f8ae6ebf34ffd56ec3bfe8a936fd0f6ec59f63ec29c746",
          "transactionIndex": "0x19",
          "logIndex": "0xf7",
          "removed": false
        },
        {
          "address": "0xadda582c1a3e4a1067c0e745894a822bb7e8698c",
          "topics": [
            "0xddf252ad1be2c89b69c2b068fc378daa952ba7f163c4a11628f55a4df523b3ef",
            "0x0000000000000000000000000000000000000000000000000000000000000000",
            "0x0000000000000000000000000000000000000000000000000000000000000000"
          ],
          "data": "0x0000000000000000000000000000000000000000000000000000000000000000",
          "blockHash": "0x0000000000000000000000000000000000000000000000000000000000000000",
          "blockNumber": "0x23cbe91",
          "blockTimestamp": "0x698cdc02",
          "transactionHash": "0x01fcac885561046de4f8ae6ebf34ffd56ec3bfe8a936fd0f6ec59f63ec29c746",
          "transactionIndex": "0x19",
          "logIndex": "0xf8",
          "removed": false
        },
        {
          "address": "0xadda582c1a3e4a1067c0e745894a822bb7e8698c",
          "topics": [
            "0x7e644d79422f17c01e4894b5f4f588d331ebfa28653d42ae832dc59e38c9798f",
            "0x0000000000000000000000000000000000000000000000000000000000000000",
            "0x0000000000000000000000000000000000000000000000000000000000000000"
          ],
          "data": "0x",
          "blockHash": "0x0000000000000000000000000000000000000000000000000000000000000000",
          "blockNumber": "0x23cbe91",
          "blockTimestamp": "0x698cdc02",
          "transactionHash": "0x01fcac885561046de4f8ae6ebf34ffd56ec3bfe8a936fd0f6ec59f63ec29c746",
          "transactionIndex": "0x19",
          "logIndex": "0xf9",
          "removed": false
        },
        {
          "address": "0xadda582c1a3e4a1067c0e745894a822bb7e8698c",
          "topics": [
            "0x7f26b83ff96e1f2b6a682f133852f6798a09c465da95921460cefb3847402498"
          ],
          "data": "0x0000000000000000000000000000000000000000000000000000000000000001",
          "blockHash": "0x0000000000000000000000000000000000000000000000000000000000000000",
          "blockNumber": "0x23cbe91",
          "blockTimestamp": "0x698cdc02",
          "transactionHash": "0x01fcac885561046de4f8ae6ebf34ffd56ec3bfe8a936fd0f6ec59f63ec29c746",
          "transactionIndex": "0x19",
          "logIndex": "0xfa",
          "removed": false
        },
        {
          "address": "0x7447e94dfe3d804a9f46bf12838d467c912c8f6c",
          "topics": [
            "0xb52c6d9d122e8c07769b96d7bb14e66db58ee03fdebaaa2f92547e9c7ef0e65f",
            "0x000000000000000000000000adda582c1a3e4a1067c0e745894a822bb7e8698c"
          ],
          "data": "0x",
          "blockHash": "0x0000000000000000000000000000000000000000000000000000000000000000",
          "blockNumber": "0x23cbe91",
          "blockTimestamp": "0x698cdc02",
          "transactionHash": "0x01fcac885561046de4f8ae6ebf34ffd56ec3bfe8a936fd0f6ec59f63ec29c746",
          "transactionIndex": "0x19",
          "logIndex": "0xfb",
          "removed": false
        }
      ],
      "logsBloom": "0x00000000020000200000000000200000000000000000000004000000000000001000000000000000404000000000000000000000000100000000000000000000000000000000000000000008000000000000000100000000080000000000002000000000020400000000000000000800000010800020000800000010000008000000000000000000000000000000000000000000010080000000000000800000000000000000000000000000000400000000000000000000200800000000000000000002000000000000000000040002000200000400000000000000000020000000000000000000000000000000000002000002000000000000000000000000",
      "type": "0x2",
      "transactionHash": "0x01fcac885561046de4f8ae6ebf34ffd56ec3bfe8a936fd0f6ec59f63ec29c746",
      "transactionIndex": "0x19",
      "blockHash": "0x0000000000000000000000000000000000000000000000000000000000000000",
      "blockNumber": "0x23cbe91",
      "gasUsed": "0x55d19",
      "effectiveGasPrice": "0x2dc6c0",
      "blobGasUsed": "0x494d",
      "from": "0x193d99ae5d3b5c8bb595b1f88dd1cc8c379a1770",
      "to": "0x7447e94dfe3d804a9f46bf12838d467c912c8f6c",
      "contractAddress": null,
      "daFootprintGasScalar": "0x8b",
      "l1BaseFeeScalar": "0x44d",
      "l1BlobBaseFee": "0xe45eb80",
      "l1BlobBaseFeeScalar": "0xa118b",
      "l1Fee": "0x55367ee8a",
      "l1GasPrice": "0xef52d651",
      "l1GasUsed": "0x879"
    },
    {
      "status": "0x1",
      "cumulativeGasUsed": "0xbd7752",
      "logs": [
        {
          "address": "0x268cfab9ddddf6a326458ae79d55592516f382ef",
          "topics": [
            "0xb2b966778749c51d2cdfab31f38ef5b70399af01f59a6eac47977ec2ae62fe96",
            "0x000000000000000000000000adda582c1a3e4a1067c0e745894a822bb7e8698c"
          ],
          "data": "0x0000000000000000000000000000000000000000000000000000000000000001",
          "blockHash": "0x0000000000000000000000000000000000000000000000000000000000000000",
          "blockNumber": "0x23cbe91",
          "blockTimestamp": "0x698cdc02",
          "transactionHash": "0xf665d6d74c50cdf2517d2a460ef5bd0ffa2d1207617f64737cb3d5da275cf74a",
          "transactionIndex": "0x1a",
          "logIndex": "0xfc",
          "removed": false
        }
      ],
      "logsBloom": "0x00000000000000000000000000000000000000000000000000000000000000020000000000000000000000000000000000000000000100000000000000000000000000000000000000000000000000000000000000000000000000000000002000000000000000000000000000000000000000000000000000000000000000000000000000000000000000000000000000000000000000000040000000000000000000002000200000000000000000000000000000000000000000000000000000000000040000000000000000000000000200000000080000000000000000000000000000000000000000000000000000000000000000000000000000000000",
      "type": "0x2",
      "transactionHash": "0xf665d6d74c50cdf2517d2a460ef5bd0ffa2d1207617f64737cb3d5da275cf74a",
      "transactionIndex": "0x1a",
      "blockHash": "0x0000000000000000000000000000000000000000000000000000000000000000",
      "blockNumber": "0x23cbe91",
      "gasUsed": "0xf755",
      "effectiveGasPrice": "0x2dc6c0",
      "blobGasUsed": "0x364c",
      "from": "0x193d99ae5d3b5c8bb595b1f88dd1cc8c379a1770",
      "to": "0x268cfab9ddddf6a326458ae79d55592516f382ef",
      "contractAddress": null,
      "daFootprintGasScalar": "0x8b",
      "l1BaseFeeScalar": "0x44d",
      "l1BlobBaseFee": "0xe45eb80",
      "l1BlobBaseFeeScalar": "0xa118b",
      "l1Fee": "0x55367ee8a",
      "l1GasPrice": "0xef52d651",
      "l1GasUsed": "0x640"
    }
  ],
  "libraries": [],
  "pending": [],
  "returns": {},
  "timestamp": 1770839041435,
  "chain": 84532,
  "commit": "33d7fdb"
}