{
  "transactions": [
    {
      "hash": "0x89bb3b873abc52d1ec86ce06fd3b6def9f11e5bae01b4f6eb34614aa35984b79",
      "transactionType": "CREATE",
      "contractName": "TestPureSuperToken",
      "contractAddress": "0xb70fcb1bf55cb350b657e52670377f2b77677254",
      "function": null,
      "arguments": null,
      "transaction": {
        "from": "0x193d99ae5d3b5c8bb595b1f88dd1cc8c379a1770",
        "gas": "0x72fac",
        "value": "0x0",
        "input": "0x6080604052348015600e575f5ffd5b506105968061001c5f395ff3fe608060405260043610610037575f3560e01c806340c10f191461004e5780634a0687ef1461006d57806375b30be61461008c57610046565b36610046576100446100ab565b005b6100446100ab565b348015610059575f5ffd5b50610044610068366004610347565b6100bd565b348015610078575f5ffd5b5061004461008736600461036f565b6100da565b348015610097575f5ffd5b506100446100a636600461042e565b6101df565b6100bb6100b661020a565b610238565b565b6100d6828260405180602001604052805f815250610256565b5050565b6001600160a01b0381166101355760405162461bcd60e51b815260206004820152601760248201527f5555505350726f78793a207a65726f206164647265737300000000000000000060448201526064015b60405180910390fd5b5f61015e7f360894a13ba1a3210667c828492db98dca3e2076cc3735a920a3ca505d382bbc5490565b6001600160a01b0316146101b45760405162461bcd60e51b815260206004820152601e60248201527f5555505350726f78793a20616c726561647920696e697469616c697a65640000604482015260640161012c565b6101dc817f360894a13ba1a3210667c828492db98dca3e2076cc3735a920a3ca505d382bbc55565b50565b6101ea8585856102af565b610203828260405180602001604052805f815250610256565b5050505050565b5f6102337f360894a13ba1a3210667c828492db98dca3e2076cc3735a920a3ca505d382bbc5490565b905090565b365f5f375f5f365f845af43d5f5f3e808015610252573d5ff35b3d5ffd5b60405163c68d428360e01b8152309063c68d42839061027d908690869086906004016104e8565b5f604051808303815f87803b158015610294575f5ffd5b505af11580156102a6573d5f5f3e3d5ffd5b50505050505050565b604051633504b4d160e21b81523060048201526001600160a01b0384169063d412d344906024015f604051808303815f87803b1580156102ed575f5ffd5b505af11580156102ff573d5f5f3e3d5ffd5b50506040516285fc1360e71b81523092506342fe0980915061027d905f9060129087908790600401610517565b80356001600160a01b0381168114610342575f5ffd5b919050565b5f5f60408385031215610358575f5ffd5b6103618361032c565b946020939093013593505050565b5f6020828403121561037f575f5ffd5b6103888261032c565b9392505050565b634e487b7160e01b5f52604160045260245ffd5b5f82601f8301126103b2575f5ffd5b813567ffffffffffffffff8111156103cc576103cc61038f565b604051601f8201601f19908116603f0116810167ffffffffffffffff811182821017156103fb576103fb61038f565b604052818152838201602001851015610412575f5ffd5b816020850160208301375f918101602001919091529392505050565b5f5f5f5f5f60a08688031215610442575f5ffd5b61044b8661032c565b9450602086013567ffffffffffffffff811115610466575f5ffd5b610472888289016103a3565b945050604086013567ffffffffffffffff81111561048e575f5ffd5b61049a888289016103a3565b9350506104a96060870161032c565b949793965091946080013592915050565b5f81518084528060208401602086015e5f602082860101526020601f19601f83011685010191505092915050565b60018060a01b0384168152826020820152606060408201525f61050e60608301846104ba565b95945050505050565b6001600160a01b038516815260ff841660208201526080604082018190525f90610543908301856104ba565b828103606084015261055581856104ba565b97965050505050505056fea26469706673582212203eab90c88d21a6dad68128a155c29f12a4979fd62480dd3fded37b635595665b64736f6c634300081d0033",
        "nonce": "0x10",
        "chainId": "0x14a34"
      },
      "additionalContracts": [],
      "isFixedGasLimit": false
    },
    {
      "hash": "0x6dc1d774759aee737f0f96bbec27e7a9a6088d6b6ba62434da7b0491cdd3355d",
      "transactionType": "CALL",
      "contractName": "TestPureSuperToken",
      "contractAddress": "0xb70fcb1bf55cb350b657e52670377f2b77677254",
      "function": "initialize(address,string,string,address,uint256)",
      "arguments": [
        "0x7447E94Dfe3d804a9f46Bf12838d467c912C8F6C",
        "KToken",
        "KT",
        "0x193D99AE5D3b5C8BB595B1f88dd1Cc8c379A1770",
        "1000000000000000000000000"
      ],
      "transaction": {
        "from": "0x193d99ae5d3b5c8bb595b1f88dd1cc8c379a1770",
        "to": "0xb70fcb1bf55cb350b657e52670377f2b77677254",
        "gas": "0x5f047",
        "value": "0x0",
        "input": "0x75b30be60000000000000000000000007447e94dfe3d804a9f46bf12838d467c912c8f6c00000000000000000000000000000000000000000000000000000000000000a000000000000000000000000000000000000000000000000000000000000000e0000000000000000000000000193d99ae5d3b5c8bb595b1f88dd1cc8c379a177000000000000000000000000000000000000000000000d3c21bcecceda100000000000000000000000000000000000000000000000000000000000000000000064b546f6b656e000000000000000000000000000000000000000000000000000000000000000000000000000000000000000000000000000000000000000000024b54000000000000000000000000000000000000000000000000000000000000",
        "nonce": "0x11",
        "chainId": "0x14a34"
      },
      "additionalContracts": [],
      "isFixedGasLimit": false
    },
    {
      "hash": "0xba67a8742f7ba0f62019fa47a3c47d65a601d53cb13e87cc5e4951b245ad34cd",
      "transactionType": "CALL",
      "contractName": null,
      "contractAddress": "0x268cfab9ddddf6a326458ae79d55592516f382ef",
      "function": "allowCurrency(address,bool)",
      "arguments": [
        "0xB70fcB1bf55cb350b657E52670377f2b77677254",
        "true"
      ],
      "transaction": {
        "from": "0x193d99ae5d3b5c8bb595b1f88dd1cc8c379a1770",
        "to": "0x268cfab9ddddf6a326458ae79d55592516f382ef",
        "gas": "0x169f9",
        "value": "0x0",
        "input": "0xb1d07a1f000000000000000000000000b70fcb1bf55cb350b657e52670377f2b776772540000000000000000000000000000000000000000000000000000000000000001",
        "nonce": "0x12",
        "chainId": "0x14a34"
      },
      "additionalContracts": [],
      "isFixedGasLimit": false
    }
  ],
  "receipts": [
    {
      "status": "0x1",
      "cumulativeGasUsed": "0x2dac20",
      "logs": [],
      "logsBloom": "0x00000000000000000000000000000000000000000000000000000000000000000000000000000000000000000000000000000000000000000000000000000000000000000000000000000000000000000000000000000000000000000000000000000000000000000000000000000000000000000000000000000000000000000000000000000000000000000000000000000000000000000000000000000000000000000000000000000000000000000000000000000000000000000000000000000000000000000000000000000000000000000000000000000000000000000000000000000000000000000000000000000000000000000000000000000000",
      "type": "0x2",
      "transactionHash": "0x89bb3b873abc52d1ec86ce06fd3b6def9f11e5bae01b4f6eb34614aa35984b79",
      "transactionIndex": "0x12",
      "blockHash": "0x0000000000000000000000000000000000000000000000000000000000000000",
      "blockNumber": "0x23cbdb0",
      "gasUsed": "0x58722",
      "effectiveGasPrice": "0x2dc6c0",
      "blobGasUsed": "0x20c82",
      "from": "0x193d99ae5d3b5c8bb595b1f88dd1cc8c379a1770",
      "to": null,
      "contractAddress": "0xb70fcb1bf55cb350b657e52670377f2b77677254",
      "daFootprintGasScalar": "0x8b",
      "l1BaseFeeScalar": "0x44d",
      "l1BlobBaseFee": "0xe45ebbe",
      "l1BlobBaseFeeScalar": "0xa118b",
      "l1Fee": "0x34221f0571",
      "l1GasPrice": "0xf974460c",
      "l1GasUsed": "0x3c63"
    },
    {
      "status": "0x1",
      "cumulativeGasUsed": "0x31bba2",
      "logs": [
        {
          "address": "0x7447e94dfe3d804a9f46bf12838d467c912c8f6c",
          "topics": [
            "0x437790724a6e97b75d23117f28cdd4b1beeafc34f7a0911ef256e9334f4369a5",
            "0x000000000000000000000000b70fcb1bf55cb350b657e52670377f2b77677254"
          ],
          "data": "0x",
          "blockHash": "0x0000000000000000000000000000000000000000000000000000000000000000",
          "blockNumber": "0x23cbdb0",
          "blockTimestamp": "0x698cda40",
          "transactionHash": "0x6dc1d774759aee737f0f96bbec27e7a9a6088d6b6ba62434da7b0491cdd3355d",
          "transactionIndex": "0x13",
          "logIndex": "0x81",
          "removed": false
        },
        {
          "address": "0x1820a4b7618bde71dce8cdc73aab6c95905fad24",
          "topics": [
            "0x93baa6efbd2244243bfee6ce4cfdd1d04fc4c0e9a786abd3a41313bd352db153",
            "0x000000000000000000000000b70fcb1bf55cb350b657e52670377f2b77677254",
            "0xac7fbab5f54a3ca8194167523c6753bfeb96a445279294b6125b68cce2177054",
            "0x000000000000000000000000b70fcb1bf55cb350b657e52670377f2b77677254"
          ],
          "data": "0x",
          "blockHash": "0x0000000000000000000000000000000000000000000000000000000000000000",
          "blockNumber": "0x23cbdb0",
          "blockTimestamp": "0x698cda40",
          "transactionHash": "0x6dc1d774759aee737f0f96bbec27e7a9a6088d6b6ba62434da7b0491cdd3355d",
          "transactionIndex": "0x13",
          "logIndex": "0x82",
          "removed": false
        },
        {
          "address": "0x1820a4b7618bde71dce8cdc73aab6c95905fad24",
          "topics": [
            "0x93baa6efbd2244243bfee6ce4cfdd1d04fc4c0e9a786abd3a41313bd352db153",
            "0x000000000000000000000000b70fcb1bf55cb350b657e52670377f2b77677254",
            "0xaea199e31a596269b42cdafd93407f14436db6e4cad65417994c2eb37381e05a",
            "0x000000000000000000000000b70fcb1bf55cb350b657e52670377f2b77677254"
          ],
          "data": "0x",
          "blockHash": "0x0000000000000000000000000000000000000000000000000000000000000000",
          "blockNumber": "0x23cbdb0",
          "blockTimestamp": "0x698cda40",
          "transactionHash": "0x6dc1d774759aee737f0f96bbec27e7a9a6088d6b6ba62434da7b0491cdd3355d",
          "transactionIndex": "0x13",
          "logIndex": "0x83",
          "removed": false
        },
        {
          "address": "0xb70fcb1bf55cb350b657e52670377f2b77677254",
          "topics": [
            "0xddf252ad1be2c89b69c2b068fc378daa952ba7f163c4a11628f55a4df523b3ef",
            "0x0000000000000000000000000000000000000000000000000000000000000000",
            "0x0000000000000000000000000000000000000000000000000000000000000000"
          ],
          "data": "0x0000000000000000000000000000000000000000000000000000000000000000",
          "blockHash": "0x0000000000000000000000000000000000000000000000000000000000000000",
          "blockNumber": "0x23cbdb0",
          "blockTimestamp": "0x698cda40",
          "transactionHash": "0x6dc1d774759aee737f0f96bbec27e7a9a6088d6b6ba62434da7b0491cdd3355d",
          "transactionIndex": "0x13",
          "logIndex": "0x84",
          "removed": false
        },
        {
          "address": "0xb70fcb1bf55cb350b657e52670377f2b77677254",
          "topics": [
            "0x7e644d79422f17c01e4894b5f4f588d331ebfa28653d42ae832dc59e38c9798f",
            "0x0000000000000000000000000000000000000000000000000000000000000000",
            "0x0000000000000000000000000000000000000000000000000000000000000000"
          ],
          "data": "0x",
          "blockHash": "0x0000000000000000000000000000000000000000000000000000000000000000",
          "blockNumber": "0x23cbdb0",
          "blockTimestamp": "0x698cda40",
          "transactionHash": "0x6dc1d774759aee737f0f96bbec27e7a9a6088d6b6ba62434da7b0491cdd3355d",
          "transactionIndex": "0x13",
          "logIndex": "0x85",
          "removed": false
        },
        {
          "address": "0xb70fcb1bf55cb350b657e52670377f2b77677254",
          "topics": [
            "0x7f26b83ff96e1f2b6a682f133852f6798a09c465da95921460cefb3847402498"
          ],
          "data": "0x0000000000000000000000000000000000000000000000000000000000000001",
          "blockHash": "0x0000000000000000000000000000000000000000000000000000000000000000",
          "blockNumber": "0x23cbdb0",
          "blockTimestamp": "0x698cda40",
          "transactionHash": "0x6dc1d774759aee737f0f96bbec27e7a9a6088d6b6ba62434da7b0491cdd3355d",
          "transactionIndex": "0x13",
          "logIndex": "0x86",
          "removed": false
        },
        {
          "address": "0xb70fcb1bf55cb350b657e52670377f2b77677254",
          "topics": [
            "0x2fe5be0146f74c5bce36c0b80911af6c7d86ff27e89d5cfa61fc681327954e5d",
            "0x000000000000000000000000b70fcb1bf55cb350b657e52670377f2b77677254",
            "0x000000000000000000000000193d99ae5d3b5c8bb595b1f88dd1cc8c379a1770"
          ],
          "data": "0x00000000000000000000000000000000000000000000d3c21bcecceda10000000000000000000000000000000000000000000000000000000000000000000060000000000000000000000000000000000000000000000000000000000000008000000000000000000000000000000000000000000000000000000000000000000000000000000000000000000000000000000000000000000000000000000000",
          "blockHash": "0x0000000000000000000000000000000000000000000000000000000000000000",
          "blockNumber": "0x23cbdb0",
          "blockTimestamp": "0x698cda40",
          "transactionHash": "0x6dc1d774759aee737f0f96bbec27e7a9a6088d6b6ba62434da7b0491cdd3355d",
          "transactionIndex": "0x13",
          "logIndex": "0x87",
          "removed": false
        },
        {
          "address": "0xb70fcb1bf55cb350b657e52670377f2b77677254",
          "topics": [
            "0xddf252ad1be2c89b69c2b068fc378daa952ba7f163c4a11628f55a4df523b3ef",
            "0x0000000000000000000000000000000000000000000000000000000000000000",
            "0x000000000000000000000000193d99ae5d3b5c8bb595b1f88dd1cc8c379a1770"
          ],
          "data": "0x00000000000000000000000000000000000000000000d3c21bcecceda1000000",
          "blockHash": "0x0000000000000000000000000000000000000000000000000000000000000000",
          "blockNumber": "0x23cbdb0",
          "blockTimestamp": "0x698cda40",
          "transactionHash": "0x6dc1d774759aee737f0f96bbec27e7a9a6088d6b6ba62434da7b0491cdd3355d",
          "transactionIndex": "0x13",
          "logIndex": "0x88",
          "removed": false
        }
      ],
      "logsBloom": "0x00000002020000200000000000200000000000000000000004000000000000001040000000000000400000000080000080002000000000000000000000000000000000000000000000000008000000000000000000000000000000000080000000000800020400000000000000000800000010800020000800000010000000000000040000000000000000008000000000000000000080000000000080800000800000000020000000000000000400000000000000000000200800000000000000000002000000000000000000040002000000000410000000000000000020000000010000000000400000000000000002000000000000000000000000000000",
      "type": "0x2",
      "transactionHash": "0x6dc1d774759aee737f0f96bbec27e7a9a6088d6b6ba62434da7b0491cdd3355d",
      "transactionIndex": "0x13",
      "blockHash": "0x0000000000000000000000000000000000000000000000000000000000000000",
      "blockNumber": "0x23cbdb0",
      "gasUsed": "0x40f82",
      "effectiveGasPrice": "0x2dc6c0",
      "blobGasUsed": "0x505c",
      "from": "0x193d99ae5d3b5c8bb595b1f88dd1cc8c379a1770",
      "to": "0xb70fcb1bf55cb350b657e52670377f2b77677254",
      "contractAddress": null,
      "daFootprintGasScalar": "0x8b",
      "l1BaseFeeScalar": "0x44d",
      "l1BlobBaseFee": "0xe45ebbe",
      "l1BlobBaseFeeScalar": "0xa118b",
      "l1Fee": "0x34221f0571",
      "l1GasPrice": "0xf974460c",
      "l1GasUsed": "0x94f"
    },
    {
      "status": "0x1",
      "cumulativeGasUsed": "0x32b323",
      "logs": [
        {
          "address": "0x268cfab9ddddf6a326458ae79d55592516f382ef",
          "topics": [
            "0xb2b966778749c51d2cdfab31f38ef5b70399af01f59a6eac47977ec2ae62fe96",
            "0x000000000000000000000000b70fcb1bf55cb350b657e52670377f2b77677254"
          ],
          "data": "0x0000000000000000000000000000000000000000000000000000000000000001",
          "blockHash": "0x0000000000000000000000000000000000000000000000000000000000000000",
          "blockNumber": "0x23cbdb0",
          "blockTimestamp": "0x698cda40",
          "transactionHash": "0xba67a8742f7ba0f62019fa47a3c47d65a601d53cb13e87cc5e4951b245ad34cd",
          "transactionIndex": "0x14",
          "logIndex": "0x89",
          "removed": false
        }
      ],
      "logsBloom": "0x00000000000000000000000000000000000000000000000000000000000000020000000000000000000000000000000000000000000000000000000000000000000000000000000000000000000000000000000000000000000000000000000000000800000000000000000000000000000000000000000000000000000000000000000000000000000000008000000000000000000000000040000080000000000000002000200000000000000000000000000000000000000000000000000000000000040000000000000000000000000000000000080000000000000000000000000000000000000000000000000000000000000000000000000000000000",
      "type": "0x2",
      "transactionHash": "0xba67a8742f7ba0f62019fa47a3c47d65a601d53cb13e87cc5e4951b245ad34cd",
      "transactionIndex": "0x14",
      "blockHash": "0x0000000000000000000000000000000000000000000000000000000000000000",
      "blockNumber": "0x23cbdb0",
      "gasUsed": "0xf781",
      "effectiveGasPrice": "0x2dc6c0",
      "blobGasUsed": "0x364c",
      "from": "0x193d99ae5d3b5c8bb595b1f88dd1cc8c379a1770",
      "to": "0x268cfab9ddddf6a326458ae79d55592516f382ef",
      "contractAddress": null,
      "daFootprintGasScalar": "0x8b",
      "l1BaseFeeScalar": "0x44d",
      "l1BlobBaseFee": "0xe45ebbe",
      "l1BlobBaseFeeScalar": "0xa118b",
      "l1Fee": "0x34221f0571",
      "l1GasPrice": "0xf974460c",
      "l1GasUsed": "0x640"
    }
  ],
  "libraries": [],
  "pending": [],
  "returns": {},
  "timestamp": 1770838591704,
  "chain": 84532,
  "commit": "181e481"
}